S010000054656D706C6174652E73726563D8
S113000019C020C01FC01EC01DC01CC01BC01AC008
S113001019C018C017C016C015C014C013C012C030
S113002011C010C00FC00EC00DC00CC00BC00AC060
S113003009C008C011241FBECFEFD4E0DEBFCDBF7E
S113004002D060C0DDCF84B1866084B98AB188668D
S11300508AB985B1897F85B98BB187798BB92A9A99
S113006029988BB188628BB95E982FE78AE196E074
S1130070215080409040E1F700C000008BB18864BB
S11300808BB95D982FE78AE196E02150804090403B
S1130090E1F700C000008BB180668BB95B982FE755
S11300A08AE196E0215080409040E1F700C00000D2
S11300B0299A2A988BB188628BB95E982FE78AE1D6
S11300C096E0215080409040E1F700C000008BB1E1
S11300D088648BB95D982FE78AE196E021508040CF
S11300E09040E1F700C000008BB180668BB95B984B
S11300F02FE78AE196E0215080409040E1F700C06C
S10B01000000ADCFF894FFCF1D
S9030000FC
